S01C0000536D6172742052656D6F746520436F6E74726F6C2E7372656374
S11300000C942A000C9447000C9447000C9447006D
S11300100C9447000C9447000C9447000C94470040
S11300200C9447000C9447000C9447000C94470030
S11300300C9447000C9447000C9447000C94470020
S11300400C9447000C9447000C9447000C94470010
S11300500C94470011241FBECFE5D8E0DEBFCDBF0E
S113006010E0A0E6B0E0E4E3F3E002C005900D92F6
S1130070A83EB107D9F720E0A8EEB0E001C01D9278
S1130080AD3EB207E1F70E9448010C9498010C942C
S1130090000082BB88B38E7F88BB88B38D7F88BB0A
S11300A088B3846088BB82E08A95F1F700C088B386
S11300B08B7F88BB8FE697E10197F1F700C00000C2
S11300C0089582BB88B3816088BB88B38D7F88BB69
S11300D088B3846088BB82E08A95F1F700C088B356
S11300E08B7F88BB8FEC97E00197F1F700C000008D
S11300F008958FEF87BB81BB8FE39CE90197F1F7EC
S113010000C0000088E30E9449008CE00E9449007E
S113011081E00E94490080E80E94490008950F93FD
S11301201F93CF93DF938C01C0E0D0E003C00E9403
S113013061002196F801EC0FFD1F80818111F7CF3A
S1130140DF91CF911F910F91089581E00E944900A2
S113015080E80E944900089584B3836084BB85B31A
S11301608C7F85BB87B3886787BB88B3877888BB58
S1130170089528B330E1839FC00111242F78822B86
S113018088BB089580EF8ABB8FEF8BBB8FEE8BBB50
S113019089B38F708093EB008F3019F01092EC00CC
S11301A023C08FED8BBB89B38F708093EB008F30AE
S11301B021F081E08093EC0017C08FEB8BBB89B3F7
S11301C08F708093EB008F3021F082E08093EC00FD
S11301D00BC08FE78BBB89B38F708093EB008F309C
S11301E089F283E08093EC008091EB008E3069F417
S11301F00E94A500E091EC00F0E0EE0FFF1FEE0F6F
S1130200FF1FE05AFF4F808108958D3069F40E94EA
S1130210A500E091EC00F0E0EE0FFF1FEE0FFF1FD2
S1130220E05AFF4F818108958B3069F40E94A50044
S1130230E091EC00F0E0EE0FFF1FEE0FFF1FE05A1D
S1130240FF4F828108950E94A500E091EC00F0E048
S1130250EE0FFF1FEE0FFF1FE05AFF4F838108953B
S11302608091E80081110AC080E790E00E948F002D
S113027081E08093E8000E94B90008958FE790E040
S11302800E948F001092E80080E00E94B900089557
S11302900E9479000E94AC008EE890E00E948F00DA
S11302A080EC0E9449008CE990E00E948F000E943B
S11302B0C200C82F80EC0E944900C233E9F0C53364
S11302C0A1F1C133A1F78091EA0081110BC08BEA3F
S11302D090E00E948F0081E08093EA0085B3816002
S11302E085BBE5CF8AEB90E00E948F001092EA0074
S11302F085B38E7F85BBDBCF8091E90081110BC074
S113030089EC90E00E948F0081E08093E90085B33E
S1130310826085BBCCCF88ED90E00E948F00109264
S1130320E90085B38D7F85BBC2CF0E943001BFCF6A
S1070330F894FFCF6B
S11303342E2D3D2F3134372A323538303336392394
S113034446414E206973204F4E2020202020004631
S1130354414E206973204F46462020202000312C32
S1130364322D4C454420352D46414E005072657360
S11303747320312C32206F722035004C45443120D7
S11303846973204F4E20202020004C4544312069BD
S113039473204F4646202020004C45443220697384
S11303A4204F4E20202020004C45443220697320E5
S10B03B44F4646202020000002
S9030000FC
